:1000000000000220A1060000D4060000D406000073
:10001000D4060000D4060000D40600000000000052
:10002000000000000000000000000000D4060000F6
:10003000D406000000000000D4060000D406000032
:10004000D4060000D4060000D4060000D406000048
:10005000D4060000D4060000D4060000D406000038
:10006000D4060000D4060000D4060000D406000028
:10007000D4060000D4060000D4060000D406000018
:10008000D4060000D4060000D4060000D406000008
:10009000D4060000D4060000D4060000D4060000F8
:1000A000D4060000D4060000D4060000D4060000E8
:1000B000D4060000D406000000000000000000008C
:1000C000D4060000D4060000D4060000D4060000C8
:1000D000D4060000D4060000D4060000D4060000B8
:1000E000D4060000D406000000000000D406000082
:0400F000D406000032
:1000F4002DE9F041062188B0282000F0C7F85648C1
:10010400564FDFF8848100F003FA00F0FBF800F0AA
:1001140005F900F087F900252E462C4600F09CF9DD
:1001240000F0B6F9B0B924B30136B6F5FA6F2DD89C
:1001340000F0D8F80028F1D000F0DAF80D28F7D054
:100144000A283B6828D0062BF2DC5A1C08F8030066
:100154003A60EDE704A800F0A1F99DF81030032BF4
:100164005FD0042BDFD1DDE905123D4800F0E0F952
:100174000026013540F6B8339D4201D80024D7E764
:100184003848002500F0C4F92C46D1E7364800264B
:1001940000F0BEF93446CBE7002BC9DD98F8001017
:1001A400A1F16102192A03D82039C9B288F80010D4
:1001B400A1F14202D2B2112A3BD82C4820FA02F211
:1001C400D20736D5002C38D1012BCDE90144039454
:1001D40037D008F8034098F80120A2F13003DAB2CE
:1001E400092A0BD8224810F8012F04EB840403EBEE
:1001F4004404A2F13003DAB2092AF4D905231D48D4
:100204008DF801102246ADF802408DF8003000F060
:100214008FF9684600F0BAF80026012400233B60F9
:1002240086E7DDE90512144800F082F99DF81030E4
:1002340097E7124800F07CF9F0E7114800F078F9EC
:10024400ECE702230F48ADF802408DF801108DF859
:10025400003000F06DF9DCE7AC0D00000000002078
:10026400F00D0000240E0000040E00001104030031
:1002740005000020500E0000D40D0000780E000090
:100284002C0E0000680E00000400002000B50C4B8A
:10029400DFF830E0C3F814054FF0FF3CC3F80C1549
:1002A400012200200421C3F808C5C3F810C5C3F80F
:1002B40024E5C3F86C05C3F800159A601A6000BD04
:1002C4000020004000E0D701054AC2F81C05D2F81E
:1002D4001C31002BFBD00023C2F81C31704700BF37
:1002E40000200040014BD3F8080170470020004073
:1002F400034BD3F818050022C3F80821C0B2704795
:10030400002000404FF0804200210123C2F8001178
:100314001360D2F80031002BFBD07047164B1748FE
:10032400002201214FF0070CC3F8FC1FC3F810256D
:10033400C3F808C54FF0AA0CC3F80C25C3F824C5AC
:10034400DFF840C0C3F81CC5DFF83CC0C3F82C2557
:10035400C3F83015C3F81425C3F818C54FF0020CC0
:10036400C3F834C506494FF6FF7CC3F83CC5C3F84F
:1003740038150270704700BF001000401C000020B8
:1003840021100100443322111010030010B403465D
:10039400204C59689A680068DB68A446ACE80F00F2
:1003A4001D4A00210123C2F810111361D2F8103143
:1003B400002BFBD0002301201749C2F81031C2F8EA
:1003C4000032C2F80445C2F80031C2F80C311060A2
:1003D400D1F80031002BFBD0002001230E4AC1F8D4
:1003E40000018B60D2F80C31002BFBD00B4C0C4974
:1003F4000023C2F80C3121202370C2F80415012116
:10040400C2F80C3110BCC2F80031C2F800025160CD
:10041400704700BF30000020001000401C00002086
:100424002000002010B4094B094C0A490022227014
:100434002120C3F804150121C3F80C2110BCC3F812
:100444000021C3F800025960704700BF001000404B
:100454001C00002020000020094BD3F80C2172B1AD
:100464000022C3F80C21D3F8003443B1054BDFF864
:100474001CC00FCB8CE80F00034B01221A7070478D
:1004840000100040200000201C0000200C00002070
:10049400014B1878704700BF1C00002010B5074CB2
:1004A40086460FCC064CCEF80C300023CEF8000064
:1004B400CEF80410CEF80820237010BD0C000020E4
:1004C4001C00002008B330B585B06D466A46002490
:1004D400B0FBF1FC01FB1C03092B94BF30335733F1
:1004E40081421370604602F1010203D80134102CDA
:1004F400EED10F242C44C5F1010514F80109FFF7CE
:10050400E3FEE542F9D105B030BD3020FFF7DCBE93
:1005140010B50446007828B1FFF7D6FE14F8010F91
:100524000028F9D10A20FFF7CFFE012010BD00BF3B
:100534000FB470B52DED028B84B00AAB53F8044BA5
:1005440003932078002800F0A1800026252840F09D
:1005540085806378252B13D0633BDAB2152A0ED835
:10056400152B0CD8DFE803F073680B300B0B0B0B67
:100574000B0B0B0B0B0B0B0B220B0B0B0B1A3F2058
:10058400FFF7A2FE023420780028DFD1304604B001
:10059400BDEC028BBDE8704004B07047039B102192
:1005A4001A1D18680392FFF78DFFEBE7039B1D6884
:1005B4002878043303930028E4D0FFF785FE15F868
:1005C400010F0028F9D1DDE7039B073323F007036C
:1005D40003F10802D3E90001039200F095FB07EE52
:1005E400900AF5EEC07AF1EE10FA3CD4BDEEE77A4B
:1005F40017EE105AB8EEC77A002D77EEC77AB0EE30
:10060400678A3EDB0A212846FFF75CFF2E20FFF7AE
:100614005BFE18EE100A00F0F7FA1D4B002200F002
:1006240065F81C4B002200F091F900F045FB3030D6
:10063400C0B2FFF749FEA5E7039B1D680433002DF4
:10064400039319DB0A212846FFF73CFF9AE7039B33
:100654001A1D18780392FFF737FE93E7FFF734FE6D
:10066400013401368FE701902D20FFF72DFEDDEDDB
:10067400017AF1EE677AB9E72D20FFF725FE6D4286
:10068400E0E72D20FFF720FE6D42BBE706467DE73D
:10069400000024400000E03F704700BF0D4885463D
:1006A4000D480E490E4A002302E0D458C4500433C6
:1006B400C4188C42F9D30B4A0B4C002301E013609D
:1006C4000432A242FBD3FFF7E7FFFFF711FDFEE779
:1006D400FEE70000000002200000002000000020CF
:1006E400A00E0000000000204000002070B54FF074
:1006F400FF0C4CF4E06C1CEA11541DBF1CEA1355AA
:1007040094EA0C0F95EA0C0F00F0DEF82C4481EA11
:10071400030621EA4C5123EA4C5350EA013518BF31
:1007240052EA033541F4801143F4801338D0A0FB1E
:1007340002CE4FF00005E1FB02E506F00042E0FBCB
:1007440003E54FF00006E1FB03569CF0000F18BFD1
:100754004EF0010EA4F1FF04B6F5007F64F5407479
:1007640004D25FEA4E0E6D4146EB060642EAC6210C
:1007740041EA55514FEAC52040EA5E504FEACE2E79
:10078400B4F1FD0C88BFBCF5E06F1ED8BEF1004F7C
:1007940008BF5FEA500E50F1000041EB045170BDF8
:1007A40006F0004646EA010140EA020081EA03013C
:1007B400B4EB5C04C2BFD4EB0C0541EA045170BD38
:1007C40041F480114FF0000E013C00F3AB8014F1B2
:1007D400360FDEBF002001F0004170BDC4F10004FB
:1007E400203C35DA0C341BDC04F11404C4F120057C
:1007F40000FA05F320FA04F001FA05F240EA0200D7
:1008040001F0004221F0004110EBD37021FA04F60C
:1008140042EB06015EEA430E08BF20EAD37070BDC6
:10082400C4F10C04C4F1200500FA04F320FA05F025
:1008340001FA04F240EA020001F0004110EBD37027
:1008440041F100015EEA430E08BF20EAD37070BD97
:10085400C4F1200500FA05F24EEA020E20FA04F370
:1008640001FA05F243EA020321FA04F001F000411F
:1008740021FA04F220EA020000EBD3705EEA430E90
:1008840008BF20EAD37070BD94F0000F0FD101F0BF
:100894000046400041EB010111F4801F08BF013CF8
:1008A400F7D041EA060195F0000F18BF704703F036
:1008B4000046520043EB030313F4801F08BF013DBD
:1008C400F7D043EA0603704794EA0C0F0CEA135579
:1008D40018BF95EA0C0F0CD050EA410618BF52EA33
:1008E4004306D1D181EA030101F000414FF0000039
:1008F40070BD50EA410606BF1046194652EA430647
:1009040019D094EA0C0F02D150EA013613D195EABA
:100914000C0F05D152EA03361CBF104619460AD102
:1009240081EA030101F0004141F0FE4141F470010C
:100934004FF0000070BD41F0FE4141F4780170BDFC
:1009440081F0004102E000BF83F0004330B54FEA7C
:1009540041044FEA430594EA050F08BF90EA020FE9
:100964001FBF54EA000C55EA020C7FEA645C7FEA7C
:10097400655C00F0E2804FEA5454D4EB5555B8BF9F
:100984006D420CDD2C4480EA020281EA030382EA10
:10099400000083EA010180EA020281EA0303362DA2
:1009A40088BF30BD11F0004F4FEA01314FF4801C75
:1009B4004CEA113102D0404261EB410113F0004F87
:1009C4004FEA03334CEA133302D0524263EB43033E
:1009D40094EA050F00F0A780A4F10104D5F1200EDC
:1009E4000DDB02FA0EFC22FA05F2801841F1000137
:1009F40003FA0EF2801843FA05F359410EE0A5F10B
:100A040020050EF1200E012A03FA0EFC28BF4CF03B
:100A1400020C43FA05F3C01851EBE37101F00045F1
:100A240007D54FF0000EDCF1000C7EEB00006EEBFE
:100A34000101B1F5801F1BD3B1F5001F0CD3490888
:100A44005FEA30004FEA3C0C04F101044FEA4452DF
:100A540012F5800F80F09A80BCF1004F08BF5FEA66
:100A6400500C50F1000041EB045141EA050130BD46
:100A74005FEA4C0C404141EB0101013C28BFB1F558
:100A8400801FE9D291F0000F04BF01460020B1FAA3
:100A940081F308BF2033A3F10B03B3F120020CDA76
:100AA4000C3208DD02F1140CC2F10C0201FA0CF054
:100AB40021FA02F10CE002F11402D8BFC2F1200CB9
:100AC40001FA02F120FA0CFCDCBF41EA0C0190406F
:100AD400E41AA2BF01EB0451294330BD6FEA0404B8
:100AE4001F3C1CDA0C340EDC04F11404C4F12002A3
:100AF40020FA04F001FA02F340EA030021FA04F3B5
:100B040045EA030130BDC4F10C04C4F1200220FA0B
:100B140002F001FA04F340EA0300294630BD21FA49
:100B240004F0294630BD94F0000F83F4801306BF0F
:100B340081F480110134013D4EE77FEA645C18BF03
:100B44007FEA655C29D094EA050F08BF90EA020F9A
:100B540005D054EA000C04BF1946104630BD91EA92
:100B6400030F1EBF0021002030BD5FEA545C05D195
:100B74004000494128BF41F0004130BD14F58004D4
:100B84003CBF01F5801130BD01F0004545F0FE4148
:100B940041F470014FF0000030BD7FEA645C1ABF7D
:100BA400194610467FEA655C1CBF0B46024650EAB4
:100BB400013406BF52EA033591EA030F41F40021E0
:100BC40030BD00BF90F0000F04BF0021704730B566
:100BD4004FF4806404F132044FF000054FF000013B
:100BE40050E700BF90F0000F04BF0021704730B5FC
:100BF4004FF4806404F1320410F0004548BF4042D1
:100C04004FF000013EE700BF42004FEAE2014FEA25
:100C140031014FEA02701FBF12F07F4393F07F4F00
:100C240081F06051704732F07F4208BF704793F003
:100C34007F4F04BF41F40021704730B54FF4607416
:100C440001F0004521F000411CE700BF50EA010219
:100C540008BF704730B54FF000050AE050EA0102C2
:100C640008BF704730B511F0004502D5404261EB32
:100C740041014FF4806404F132045FEA915C3FF473
:100C8400D8AE4FF003025FEADC0C18BF03325FEA10
:100C9400DC0C18BF033202EBDC02C2F1200300FAC1
:100CA40003FC20FA02F001FA03FE40EA0E0021FAE6
:100CB40002F11444BDE600BF4FEA410212F50012EE
:100CC40015D211D56FF47873B3EB625212D94FEA8F
:100CD400C12343F0004343EA505311F0004F23FA79
:100CE40002F018BF404270474FF00000704750EACE
:100CF400013005D111F0004008BF6FF0004070478B
:100D04004FF00000704700BF4FEA4102B2F1E043E8
:100D140024BFB3F5001CDCF1FE5C0DD901F0004CDE
:100D24004FEAC0024CEA5070B2F1004F40EB83002E
:100D340008BF20F00100704711F0804F21D113F15A
:100D44003872BCBF01F00040704741F480114FEA93
:100D54005252C2F11802C2F1200C10FA0CF320FA1C
:100D640002F018BF40F001004FEAC1234FEAD32339
:100D740003FA0CFC40EA0C0023FA02F34FEA4303A3
:100D8400CCE77FEA625307D150EA01331EBF4FF02C
:100D9400FE4040F44000704701F0004040F0FE4047
:100DA40040F40000704700BF0D0A2D2D2D20324461
:100DB400204D617070696E67205265636569766560
:100DC400722053746172746564202D2D2D0D000002
:100DD40041434B20524543454956454420284C3A0B
:100DE400256420523A2564290D0A0000444F4E45DB
:100DF40020284C3A256420523A2564290D0A000023
:100E040054494D454F55543A2041434B204C4F5380
:100E140054202D3E20524553455454494E470D000D
:100E240052454144590D00004255535920287761D9
:100E34006974696E672041434B292C2064726F707A
:100E44007065643A2025630D0A0000005041524148
:100E54004D20434D443A2025632076616C3D256442
:100E64000D0A0000434D442053454E543A20256357
:100E74000D0A0000494E56414C49443A2025630D61
:100E84000A000000F8B500BFF8BC08BC9E467047D5
:0C0E9400F8B500BFF8BC08BC9E467047D3
:04000003000000F405
:00000001FF
